{
  "address": "0x450583D35CE217c795D932E4fC6Fc6A736EccCbC",
  "abi": [
    {
      "inputs": [
        {
          "internalType": "uint256",
          "name": "_maxSupply",
          "type": "uint256"
        },
        {
          "internalType": "uint256",
          "name": "_maxSupplyAllowlist",
          "type": "uint256"
        }
      ],
      "stateMutability": "nonpayable",
      "type": "constructor"
    },
    {
      "inputs": [],
      "name": "AlreadyClaimed",
      "type": "error"
    },
    {
      "inputs": [],
      "name": "NotAllowlisted",
      "type": "error"
    },
    {
      "inputs": [],
      "name": "WrongMaxAmountAllowlist",
      "type": "error"
    },
    {
      "inputs": [
        {
          "internalType": "uint256",
          "name": "",
          "type": "uint256"
        }
      ],
      "name": "YouHaveExceededMaxSupply",
      "type": "error"
    },
    {
      "anonymous": false,
      "inputs": [
        {
          "indexed": true,
          "internalType": "address",
          "name": "owner",
          "type": "address"
        },
        {
          "indexed": true,
          "internalType": "address",
          "name": "spender",
          "type": "address"
        },
        {
          "indexed": false,
          "internalType": "uint256",
          "name": "value",
          "type": "uint256"
        }
      ],
      "name": "Approval",
      "type": "event"
    },
    {
      "anonymous": false,
      "inputs": [
        {
          "indexed": true,
          "internalType": "address",
          "name": "previousOwner",
          "type": "address"
        },
        {
          "indexed": true,
          "internalType": "address",
          "name": "newOwner",
          "type": "address"
        }
      ],
      "name": "OwnershipTransferred",
      "type": "event"
    },
    {
      "anonymous": false,
      "inputs": [
        {
          "indexed": true,
          "internalType": "address",
          "name": "from",
          "type": "address"
        },
        {
          "indexed": true,
          "internalType": "address",
          "name": "to",
          "type": "address"
        },
        {
          "indexed": false,
          "internalType": "uint256",
          "name": "value",
          "type": "uint256"
        }
      ],
      "name": "Transfer",
      "type": "event"
    },
    {
      "inputs": [
        {
          "internalType": "address",
          "name": "owner",
          "type": "address"
        },
        {
          "internalType": "address",
          "name": "spender",
          "type": "address"
        }
      ],
      "name": "allowance",
      "outputs": [
        {
          "internalType": "uint256",
          "name": "",
          "type": "uint256"
        }
      ],
      "stateMutability": "view",
      "type": "function"
    },
    {
      "inputs": [
        {
          "internalType": "address",
          "name": "spender",
          "type": "address"
        },
        {
          "internalType": "uint256",
          "name": "amount",
          "type": "uint256"
        }
      ],
      "name": "approve",
      "outputs": [
        {
          "internalType": "bool",
          "name": "",
          "type": "bool"
        }
      ],
      "stateMutability": "nonpayable",
      "type": "function"
    },
    {
      "inputs": [
        {
          "internalType": "address",
          "name": "account",
          "type": "address"
        }
      ],
      "name": "balanceOf",
      "outputs": [
        {
          "internalType": "uint256",
          "name": "",
          "type": "uint256"
        }
      ],
      "stateMutability": "view",
      "type": "function"
    },
    {
      "inputs": [],
      "name": "decimals",
      "outputs": [
        {
          "internalType": "uint8",
          "name": "",
          "type": "uint8"
        }
      ],
      "stateMutability": "view",
      "type": "function"
    },
    {
      "inputs": [
        {
          "internalType": "address",
          "name": "spender",
          "type": "address"
        },
        {
          "internalType": "uint256",
          "name": "subtractedValue",
          "type": "uint256"
        }
      ],
      "name": "decreaseAllowance",
      "outputs": [
        {
          "internalType": "bool",
          "name": "",
          "type": "bool"
        }
      ],
      "stateMutability": "nonpayable",
      "type": "function"
    },
    {
      "inputs": [
        {
          "internalType": "uint256",
          "name": "_index",
          "type": "uint256"
        }
      ],
      "name": "getBitMaps",
      "outputs": [
        {
          "internalType": "bool",
          "name": "",
          "type": "bool"
        }
      ],
      "stateMutability": "view",
      "type": "function"
    },
    {
      "inputs": [],
      "name": "getMaxSupply",
      "outputs": [
        {
          "internalType": "uint256",
          "name": "",
          "type": "uint256"
        }
      ],
      "stateMutability": "view",
      "type": "function"
    },
    {
      "inputs": [],
      "name": "getRoot",
      "outputs": [
        {
          "internalType": "bytes32",
          "name": "",
          "type": "bytes32"
        }
      ],
      "stateMutability": "view",
      "type": "function"
    },
    {
      "inputs": [
        {
          "internalType": "address",
          "name": "spender",
          "type": "address"
        },
        {
          "internalType": "uint256",
          "name": "addedValue",
          "type": "uint256"
        }
      ],
      "name": "increaseAllowance",
      "outputs": [
        {
          "internalType": "bool",
          "name": "",
          "type": "bool"
        }
      ],
      "stateMutability": "nonpayable",
      "type": "function"
    },
    {
      "inputs": [
        {
          "internalType": "bytes32[]",
          "name": "_proof",
          "type": "bytes32[]"
        },
        {
          "internalType": "uint256",
          "name": "_index",
          "type": "uint256"
        },
        {
          "internalType": "uint256",
          "name": "_amount",
          "type": "uint256"
        }
      ],
      "name": "mintTokensAllowlist",
      "outputs": [],
      "stateMutability": "nonpayable",
      "type": "function"
    },
    {
      "inputs": [],
      "name": "name",
      "outputs": [
        {
          "internalType": "string",
          "name": "",
          "type": "string"
        }
      ],
      "stateMutability": "view",
      "type": "function"
    },
    {
      "inputs": [],
      "name": "owner",
      "outputs": [
        {
          "internalType": "address",
          "name": "",
          "type": "address"
        }
      ],
      "stateMutability": "view",
      "type": "function"
    },
    {
      "inputs": [],
      "name": "renounceOwnership",
      "outputs": [],
      "stateMutability": "nonpayable",
      "type": "function"
    },
    {
      "inputs": [],
      "name": "symbol",
      "outputs": [
        {
          "internalType": "string",
          "name": "",
          "type": "string"
        }
      ],
      "stateMutability": "view",
      "type": "function"
    },
    {
      "inputs": [],
      "name": "totalSupply",
      "outputs": [
        {
          "internalType": "uint256",
          "name": "",
          "type": "uint256"
        }
      ],
      "stateMutability": "view",
      "type": "function"
    },
    {
      "inputs": [
        {
          "internalType": "address",
          "name": "to",
          "type": "address"
        },
        {
          "internalType": "uint256",
          "name": "amount",
          "type": "uint256"
        }
      ],
      "name": "transfer",
      "outputs": [
        {
          "internalType": "bool",
          "name": "",
          "type": "bool"
        }
      ],
      "stateMutability": "nonpayable",
      "type": "function"
    },
    {
      "inputs": [
        {
          "internalType": "address",
          "name": "from",
          "type": "address"
        },
        {
          "internalType": "address",
          "name": "to",
          "type": "address"
        },
        {
          "internalType": "uint256",
          "name": "amount",
          "type": "uint256"
        }
      ],
      "name": "transferFrom",
      "outputs": [
        {
          "internalType": "bool",
          "name": "",
          "type": "bool"
        }
      ],
      "stateMutability": "nonpayable",
      "type": "function"
    },
    {
      "inputs": [
        {
          "internalType": "address",
          "name": "newOwner",
          "type": "address"
        }
      ],
      "name": "transferOwnership",
      "outputs": [],
      "stateMutability": "nonpayable",
      "type": "function"
    },
    {
      "inputs": [
        {
          "internalType": "bytes32",
          "name": "_root",
          "type": "bytes32"
        }
      ],
      "name": "updateMerkleRoot",
      "outputs": [],
      "stateMutability": "nonpayable",
      "type": "function"
    },
    {
      "inputs": [
        {
          "internalType": "bytes32[]",
          "name": "proof",
          "type": "bytes32[]"
        },
        {
          "internalType": "address",
          "name": "addr",
          "type": "address"
        },
        {
          "internalType": "uint256",
          "name": "index",
          "type": "uint256"
        },
        {
          "internalType": "uint256",
          "name": "amount",
          "type": "uint256"
        }
      ],
      "name": "verify",
      "outputs": [],
      "stateMutability": "view",
      "type": "function"
    }
  ],
  "transactionHash": "0xfa8ea7027732a4f9d3778fddd4cb742bdea88ce97af4bfb5a0ba9c6ca9d43192",
  "args": [
    "1000000000000000000000000",
    "50000000000000000000000"
  ],
  "numDeployments": 1,
  "solcInputHash": "275524634501649b330a024215f3287e",
  "bytecode": "0x60a06040523480156200001157600080fd5b506040516200291a3803806200291a8339818101604052810190620000379190620003e5565b6040518060400160405280600981526020017f436f666665436f696e00000000000000000000000000000000000000000000008152506040518060400160405280600381526020017f43464300000000000000000000000000000000000000000000000000000000008152508160039081620000b491906200069c565b508060049081620000c691906200069c565b505050620000e9620000dd6200016060201b60201c565b6200016860201b60201c565b6000811480620000f95750818110155b1562000131576040517fd83bf2ea00000000000000000000000000000000000000000000000000000000815260040160405180910390fd5b62000150338284620001449190620007b2565b6200022e60201b60201c565b81608081815250505050620008d9565b600033905090565b6000600560009054906101000a900473ffffffffffffffffffffffffffffffffffffffff16905081600560006101000a81548173ffffffffffffffffffffffffffffffffffffffff021916908373ffffffffffffffffffffffffffffffffffffffff1602179055508173ffffffffffffffffffffffffffffffffffffffff168173ffffffffffffffffffffffffffffffffffffffff167f8be0079c531659141344cd1fd0a4f28419497f9722a3daafe3b4186f6b6457e060405160405180910390a35050565b600073ffffffffffffffffffffffffffffffffffffffff168273ffffffffffffffffffffffffffffffffffffffff1603620002a0576040517f08c379a000000000000000000000000000000000000000000000000000000000815260040162000297906200084e565b60405180910390fd5b620002b4600083836200039b60201b60201c565b8060026000828254620002c8919062000870565b92505081905550806000808473ffffffffffffffffffffffffffffffffffffffff1673ffffffffffffffffffffffffffffffffffffffff168152602001908152602001600020600082825401925050819055508173ffffffffffffffffffffffffffffffffffffffff16600073ffffffffffffffffffffffffffffffffffffffff167fddf252ad1be2c89b69c2b068fc378daa952ba7f163c4a11628f55a4df523b3ef836040516200037b9190620008bc565b60405180910390a36200039760008383620003a060201b60201c565b5050565b505050565b505050565b600080fd5b6000819050919050565b620003bf81620003aa565b8114620003cb57600080fd5b50565b600081519050620003df81620003b4565b92915050565b60008060408385031215620003ff57620003fe620003a5565b5b60006200040f85828601620003ce565b92505060206200042285828601620003ce565b9150509250929050565b600081519050919050565b7f4e487b7100000000000000000000000000000000000000000000000000000000600052604160045260246000fd5b7f4e487b7100000000000000000000000000000000000000000000000000000000600052602260045260246000fd5b60006002820490506001821680620004ae57607f821691505b602082108103620004c457620004c362000466565b5b50919050565b60008190508160005260206000209050919050565b60006020601f8301049050919050565b600082821b905092915050565b6000600883026200052e7fffffffffffffffffffffffffffffffffffffffffffffffffffffffffffffffff82620004ef565b6200053a8683620004ef565b95508019841693508086168417925050509392505050565b6000819050919050565b60006200057d620005776200057184620003aa565b62000552565b620003aa565b9050919050565b6000819050919050565b62000599836200055c565b620005b1620005a88262000584565b848454620004fc565b825550505050565b600090565b620005c8620005b9565b620005d58184846200058e565b505050565b5b81811015620005fd57620005f1600082620005be565b600181019050620005db565b5050565b601f8211156200064c576200061681620004ca565b6200062184620004df565b8101602085101562000631578190505b620006496200064085620004df565b830182620005da565b50505b505050565b600082821c905092915050565b6000620006716000198460080262000651565b1980831691505092915050565b60006200068c83836200065e565b9150826002028217905092915050565b620006a7826200042c565b67ffffffffffffffff811115620006c357620006c262000437565b5b620006cf825462000495565b620006dc82828562000601565b600060209050601f831160018114620007145760008415620006ff578287015190505b6200070b85826200067e565b8655506200077b565b601f1984166200072486620004ca565b60005b828110156200074e5784890151825560018201915060208501945060208101905062000727565b868310156200076e57848901516200076a601f8916826200065e565b8355505b6001600288020188555050505b505050505050565b7f4e487b7100000000000000000000000000000000000000000000000000000000600052601160045260246000fd5b6000620007bf82620003aa565b9150620007cc83620003aa565b9250828203905081811115620007e757620007e662000783565b5b92915050565b600082825260208201905092915050565b7f45524332303a206d696e7420746f20746865207a65726f206164647265737300600082015250565b600062000836601f83620007ed565b91506200084382620007fe565b602082019050919050565b60006020820190508181036000830152620008698162000827565b9050919050565b60006200087d82620003aa565b91506200088a83620003aa565b9250828201905080821115620008a557620008a462000783565b5b92915050565b620008b681620003aa565b82525050565b6000602082019050620008d36000830184620008ab565b92915050565b60805161201762000903600039600081816105410152818161077e01526107b801526120176000f3fe608060405234801561001057600080fd5b506004361061012c5760003560e01c806370a08231116100ad5780639885dbc1116100715780639885dbc114610335578063a457c2d714610351578063a9059cbb14610381578063dd62ed3e146103b1578063f2fde38b146103e15761012c565b806370a08231146102a3578063715018a6146102d357806385d4773c146102dd5780638da5cb5b146102f957806395d89b41146103175761012c565b806339509351116100f457806339509351146101eb5780634783f0ef1461021b5780634c0f38c2146102375780635ca1e165146102555780636b53d6c8146102735761012c565b806306fdde0314610131578063095ea7b31461014f57806318160ddd1461017f57806323b872dd1461019d578063313ce567146101cd575b600080fd5b6101396103fd565b6040516101469190611373565b60405180910390f35b6101696004803603810190610164919061143d565b61048f565b6040516101769190611498565b60405180910390f35b6101876104b2565b60405161019491906114c2565b60405180910390f35b6101b760048036038101906101b291906114dd565b6104bc565b6040516101c49190611498565b60405180910390f35b6101d56104eb565b6040516101e2919061154c565b60405180910390f35b6102056004803603810190610200919061143d565b6104f4565b6040516102129190611498565b60405180910390f35b6102356004803603810190610230919061159d565b61052b565b005b61023f61053d565b60405161024c91906114c2565b60405180910390f35b61025d610565565b60405161026a91906115d9565b60405180910390f35b61028d600480360381019061028891906115f4565b61056f565b60405161029a9190611498565b60405180910390f35b6102bd60048036038101906102b89190611621565b610583565b6040516102ca91906114c2565b60405180910390f35b6102db6105cb565b005b6102f760048036038101906102f29190611796565b6105df565b005b61030161067e565b60405161030e9190611828565b60405180910390f35b61031f6106a8565b60405161032c9190611373565b60405180910390f35b61034f600480360381019061034a9190611843565b61073a565b005b61036b6004803603810190610366919061143d565b61083b565b6040516103789190611498565b60405180910390f35b61039b6004803603810190610396919061143d565b6108b2565b6040516103a89190611498565b60405180910390f35b6103cb60048036038101906103c691906118b2565b6108d5565b6040516103d891906114c2565b60405180910390f35b6103fb60048036038101906103f69190611621565b61095c565b005b60606003805461040c90611921565b80601f016020809104026020016040519081016040528092919081815260200182805461043890611921565b80156104855780601f1061045a57610100808354040283529160200191610485565b820191906000526020600020905b81548152906001019060200180831161046857829003601f168201915b5050505050905090565b60008061049a6109df565b90506104a78185856109e7565b600191505092915050565b6000600254905090565b6000806104c76109df565b90506104d4858285610bb0565b6104df858585610c3c565b60019150509392505050565b60006012905090565b6000806104ff6109df565b905061052081858561051185896108d5565b61051b9190611981565b6109e7565b600191505092915050565b610533610eb2565b8060078190555050565b60007f0000000000000000000000000000000000000000000000000000000000000000905090565b6000600754905090565b600061057c600683610f30565b9050919050565b60008060008373ffffffffffffffffffffffffffffffffffffffff1673ffffffffffffffffffffffffffffffffffffffff168152602001908152602001600020549050919050565b6105d3610eb2565b6105dd6000610f6c565b565b60008383836040516020016105f6939291906119b5565b6040516020818303038152906040528051906020012060405160200161061c9190611a0d565b6040516020818303038152906040528051906020012090506106418560075483611032565b610677576040517f06fb10a900000000000000000000000000000000000000000000000000000000815260040160405180910390fd5b5050505050565b6000600560009054906101000a900473ffffffffffffffffffffffffffffffffffffffff16905090565b6060600480546106b790611921565b80601f01602080910402602001604051908101604052809291908181526020018280546106e390611921565b80156107305780601f1061070557610100808354040283529160200191610730565b820191906000526020600020905b81548152906001019060200180831161071357829003601f168201915b5050505050905090565b610745600683610f30565b1561077c576040517f646cf55800000000000000000000000000000000000000000000000000000000815260040160405180910390fd5b7f0000000000000000000000000000000000000000000000000000000000000000816107a66104b2565b6107b09190611981565b1115610813577f00000000000000000000000000000000000000000000000000000000000000006040517ff23c561500000000000000000000000000000000000000000000000000000000815260040161080a91906114c2565b60405180910390fd5b61081f833384846105df565b61082c6006836001611049565b610836338261106e565b505050565b6000806108466109df565b9050600061085482866108d5565b905083811015610899576040517f08c379a000000000000000000000000000000000000000000000000000000000815260040161089090611a9a565b60405180910390fd5b6108a682868684036109e7565b60019250505092915050565b6000806108bd6109df565b90506108ca818585610c3c565b600191505092915050565b6000600160008473ffffffffffffffffffffffffffffffffffffffff1673ffffffffffffffffffffffffffffffffffffffff16815260200190815260200160002060008373ffffffffffffffffffffffffffffffffffffffff1673ffffffffffffffffffffffffffffffffffffffff16815260200190815260200160002054905092915050565b610964610eb2565b600073ffffffffffffffffffffffffffffffffffffffff168173ffffffffffffffffffffffffffffffffffffffff16036109d3576040517f08c379a00000000000000000000000000000000000000000000000000000000081526004016109ca90611b2c565b60405180910390fd5b6109dc81610f6c565b50565b600033905090565b600073ffffffffffffffffffffffffffffffffffffffff168373ffffffffffffffffffffffffffffffffffffffff1603610a56576040517f08c379a0000000000000000000000000000000000000000000000000000000008152600401610a4d90611bbe565b60405180910390fd5b600073ffffffffffffffffffffffffffffffffffffffff168273ffffffffffffffffffffffffffffffffffffffff1603610ac5576040517f08c379a0000000000000000000000000000000000000000000000000000000008152600401610abc90611c50565b60405180910390fd5b80600160008573ffffffffffffffffffffffffffffffffffffffff1673ffffffffffffffffffffffffffffffffffffffff16815260200190815260200160002060008473ffffffffffffffffffffffffffffffffffffffff1673ffffffffffffffffffffffffffffffffffffffff168152602001908152602001600020819055508173ffffffffffffffffffffffffffffffffffffffff168373ffffffffffffffffffffffffffffffffffffffff167f8c5be1e5ebec7d5bd14f71427d1e84f3dd0314c0f7b2291e5b200ac8c7c3b92583604051610ba391906114c2565b60405180910390a3505050565b6000610bbc84846108d5565b90507fffffffffffffffffffffffffffffffffffffffffffffffffffffffffffffffff8114610c365781811015610c28576040517f08c379a0000000000000000000000000000000000000000000000000000000008152600401610c1f90611cbc565b60405180910390fd5b610c3584848484036109e7565b5b50505050565b600073ffffffffffffffffffffffffffffffffffffffff168373ffffffffffffffffffffffffffffffffffffffff1603610cab576040517f08c379a0000000000000000000000000000000000000000000000000000000008152600401610ca290611d4e565b60405180910390fd5b600073ffffffffffffffffffffffffffffffffffffffff168273ffffffffffffffffffffffffffffffffffffffff1603610d1a576040517f08c379a0000000000000000000000000000000000000000000000000000000008152600401610d1190611de0565b60405180910390fd5b610d258383836111c4565b60008060008573ffffffffffffffffffffffffffffffffffffffff1673ffffffffffffffffffffffffffffffffffffffff16815260200190815260200160002054905081811015610dab576040517f08c379a0000000000000000000000000000000000000000000000000000000008152600401610da290611e72565b60405180910390fd5b8181036000808673ffffffffffffffffffffffffffffffffffffffff1673ffffffffffffffffffffffffffffffffffffffff16815260200190815260200160002081905550816000808573ffffffffffffffffffffffffffffffffffffffff1673ffffffffffffffffffffffffffffffffffffffff168152602001908152602001600020600082825401925050819055508273ffffffffffffffffffffffffffffffffffffffff168473ffffffffffffffffffffffffffffffffffffffff167fddf252ad1be2c89b69c2b068fc378daa952ba7f163c4a11628f55a4df523b3ef84604051610e9991906114c2565b60405180910390a3610eac8484846111c9565b50505050565b610eba6109df565b73ffffffffffffffffffffffffffffffffffffffff16610ed861067e565b73ffffffffffffffffffffffffffffffffffffffff1614610f2e576040517f08c379a0000000000000000000000000000000000000000000000000000000008152600401610f2590611ede565b60405180910390fd5b565b600080600883901c9050600060ff84166001901b9050600081866000016000858152602001908152602001600020541614159250505092915050565b6000600560009054906101000a900473ffffffffffffffffffffffffffffffffffffffff16905081600560006101000a81548173ffffffffffffffffffffffffffffffffffffffff021916908373ffffffffffffffffffffffffffffffffffffffff1602179055508173ffffffffffffffffffffffffffffffffffffffff168173ffffffffffffffffffffffffffffffffffffffff167f8be0079c531659141344cd1fd0a4f28419497f9722a3daafe3b4186f6b6457e060405160405180910390a35050565b60008261103f85846111ce565b1490509392505050565b801561105e576110598383611224565b611069565b6110688383611262565b5b505050565b600073ffffffffffffffffffffffffffffffffffffffff168273ffffffffffffffffffffffffffffffffffffffff16036110dd576040517f08c379a00000000000000000000000000000000000000000000000000000000081526004016110d490611f4a565b60405180910390fd5b6110e9600083836111c4565b80600260008282546110fb9190611981565b92505081905550806000808473ffffffffffffffffffffffffffffffffffffffff1673ffffffffffffffffffffffffffffffffffffffff168152602001908152602001600020600082825401925050819055508173ffffffffffffffffffffffffffffffffffffffff16600073ffffffffffffffffffffffffffffffffffffffff167fddf252ad1be2c89b69c2b068fc378daa952ba7f163c4a11628f55a4df523b3ef836040516111ac91906114c2565b60405180910390a36111c0600083836111c9565b5050565b505050565b505050565b60008082905060005b845181101561121957611204828683815181106111f7576111f6611f6a565b5b60200260200101516112a1565b9150808061121190611f99565b9150506111d7565b508091505092915050565b6000600882901c9050600060ff83166001901b9050808460000160008481526020019081526020016000206000828254179250508190555050505050565b6000600882901c9050600060ff83166001901b905080198460000160008481526020019081526020016000206000828254169250508190555050505050565b60008183106112b9576112b482846112cc565b6112c4565b6112c383836112cc565b5b905092915050565b600082600052816020526040600020905092915050565b600081519050919050565b600082825260208201905092915050565b60005b8381101561131d578082015181840152602081019050611302565b60008484015250505050565b6000601f19601f8301169050919050565b6000611345826112e3565b61134f81856112ee565b935061135f8185602086016112ff565b61136881611329565b840191505092915050565b6000602082019050818103600083015261138d818461133a565b905092915050565b6000604051905090565b600080fd5b600080fd5b600073ffffffffffffffffffffffffffffffffffffffff82169050919050565b60006113d4826113a9565b9050919050565b6113e4816113c9565b81146113ef57600080fd5b50565b600081359050611401816113db565b92915050565b6000819050919050565b61141a81611407565b811461142557600080fd5b50565b60008135905061143781611411565b92915050565b600080604083850312156114545761145361139f565b5b6000611462858286016113f2565b925050602061147385828601611428565b9150509250929050565b60008115159050919050565b6114928161147d565b82525050565b60006020820190506114ad6000830184611489565b92915050565b6114bc81611407565b82525050565b60006020820190506114d760008301846114b3565b92915050565b6000806000606084860312156114f6576114f561139f565b5b6000611504868287016113f2565b9350506020611515868287016113f2565b925050604061152686828701611428565b9150509250925092565b600060ff82169050919050565b61154681611530565b82525050565b6000602082019050611561600083018461153d565b92915050565b6000819050919050565b61157a81611567565b811461158557600080fd5b50565b60008135905061159781611571565b92915050565b6000602082840312156115b3576115b261139f565b5b60006115c184828501611588565b91505092915050565b6115d381611567565b82525050565b60006020820190506115ee60008301846115ca565b92915050565b60006020828403121561160a5761160961139f565b5b600061161884828501611428565b91505092915050565b6000602082840312156116375761163661139f565b5b6000611645848285016113f2565b91505092915050565b600080fd5b7f4e487b7100000000000000000000000000000000000000000000000000000000600052604160045260246000fd5b61168b82611329565b810181811067ffffffffffffffff821117156116aa576116a9611653565b5b80604052505050565b60006116bd611395565b90506116c98282611682565b919050565b600067ffffffffffffffff8211156116e9576116e8611653565b5b602082029050602081019050919050565b600080fd5b600061171261170d846116ce565b6116b3565b90508083825260208201905060208402830185811115611735576117346116fa565b5b835b8181101561175e578061174a8882611588565b845260208401935050602081019050611737565b5050509392505050565b600082601f83011261177d5761177c61164e565b5b813561178d8482602086016116ff565b91505092915050565b600080600080608085870312156117b0576117af61139f565b5b600085013567ffffffffffffffff8111156117ce576117cd6113a4565b5b6117da87828801611768565b94505060206117eb878288016113f2565b93505060406117fc87828801611428565b925050606061180d87828801611428565b91505092959194509250565b611822816113c9565b82525050565b600060208201905061183d6000830184611819565b92915050565b60008060006060848603121561185c5761185b61139f565b5b600084013567ffffffffffffffff81111561187a576118796113a4565b5b61188686828701611768565b935050602061189786828701611428565b92505060406118a886828701611428565b9150509250925092565b600080604083850312156118c9576118c861139f565b5b60006118d7858286016113f2565b92505060206118e8858286016113f2565b9150509250929050565b7f4e487b7100000000000000000000000000000000000000000000000000000000600052602260045260246000fd5b6000600282049050600182168061193957607f821691505b60208210810361194c5761194b6118f2565b5b50919050565b7f4e487b7100000000000000000000000000000000000000000000000000000000600052601160045260246000fd5b600061198c82611407565b915061199783611407565b92508282019050808211156119af576119ae611952565b5b92915050565b60006060820190506119ca6000830186611819565b6119d760208301856114b3565b6119e460408301846114b3565b949350505050565b6000819050919050565b611a07611a0282611567565b6119ec565b82525050565b6000611a1982846119f6565b60208201915081905092915050565b7f45524332303a2064656372656173656420616c6c6f77616e63652062656c6f7760008201527f207a65726f000000000000000000000000000000000000000000000000000000602082015250565b6000611a846025836112ee565b9150611a8f82611a28565b604082019050919050565b60006020820190508181036000830152611ab381611a77565b9050919050565b7f4f776e61626c653a206e6577206f776e657220697320746865207a65726f206160008201527f6464726573730000000000000000000000000000000000000000000000000000602082015250565b6000611b166026836112ee565b9150611b2182611aba565b604082019050919050565b60006020820190508181036000830152611b4581611b09565b9050919050565b7f45524332303a20617070726f76652066726f6d20746865207a65726f2061646460008201527f7265737300000000000000000000000000000000000000000000000000000000602082015250565b6000611ba86024836112ee565b9150611bb382611b4c565b604082019050919050565b60006020820190508181036000830152611bd781611b9b565b9050919050565b7f45524332303a20617070726f766520746f20746865207a65726f20616464726560008201527f7373000000000000000000000000000000000000000000000000000000000000602082015250565b6000611c3a6022836112ee565b9150611c4582611bde565b604082019050919050565b60006020820190508181036000830152611c6981611c2d565b9050919050565b7f45524332303a20696e73756666696369656e7420616c6c6f77616e6365000000600082015250565b6000611ca6601d836112ee565b9150611cb182611c70565b602082019050919050565b60006020820190508181036000830152611cd581611c99565b9050919050565b7f45524332303a207472616e736665722066726f6d20746865207a65726f20616460008201527f6472657373000000000000000000000000000000000000000000000000000000602082015250565b6000611d386025836112ee565b9150611d4382611cdc565b604082019050919050565b60006020820190508181036000830152611d6781611d2b565b9050919050565b7f45524332303a207472616e7366657220746f20746865207a65726f206164647260008201527f6573730000000000000000000000000000000000000000000000000000000000602082015250565b6000611dca6023836112ee565b9150611dd582611d6e565b604082019050919050565b60006020820190508181036000830152611df981611dbd565b9050919050565b7f45524332303a207472616e7366657220616d6f756e742065786365656473206260008201527f616c616e63650000000000000000000000000000000000000000000000000000602082015250565b6000611e5c6026836112ee565b9150611e6782611e00565b604082019050919050565b60006020820190508181036000830152611e8b81611e4f565b9050919050565b7f4f776e61626c653a2063616c6c6572206973206e6f7420746865206f776e6572600082015250565b6000611ec86020836112ee565b9150611ed382611e92565b602082019050919050565b60006020820190508181036000830152611ef781611ebb565b9050919050565b7f45524332303a206d696e7420746f20746865207a65726f206164647265737300600082015250565b6000611f34601f836112ee565b9150611f3f82611efe565b602082019050919050565b60006020820190508181036000830152611f6381611f27565b9050919050565b7f4e487b7100000000000000000000000000000000000000000000000000000000600052603260045260246000fd5b6000611fa482611407565b91507fffffffffffffffffffffffffffffffffffffffffffffffffffffffffffffffff8203611fd657611fd5611952565b5b60018201905091905056fea2646970667358221220f39ac76634c637249465d93982ec7249113157eea58f303b2052f62d8d1e901d64736f6c63430008120033",
  "devdoc": {
    "events": {
      "Approval(address,address,uint256)": {
        "details": "Emitted when the allowance of a `spender` for an `owner` is set by a call to {approve}. `value` is the new allowance."
      },
      "Transfer(address,address,uint256)": {
        "details": "Emitted when `value` tokens are moved from one account (`from`) to another (`to`). Note that `value` may be zero."
      }
    },
    "kind": "dev",
    "methods": {
      "allowance(address,address)": {
        "details": "See {IERC20-allowance}."
      },
      "approve(address,uint256)": {
        "details": "See {IERC20-approve}. NOTE: If `amount` is the maximum `uint256`, the allowance is not updated on `transferFrom`. This is semantically equivalent to an infinite approval. Requirements: - `spender` cannot be the zero address."
      },
      "balanceOf(address)": {
        "details": "See {IERC20-balanceOf}."
      },
      "decimals()": {
        "details": "Returns the number of decimals used to get its user representation. For example, if `decimals` equals `2`, a balance of `505` tokens should be displayed to a user as `5.05` (`505 / 10 ** 2`). Tokens usually opt for a value of 18, imitating the relationship between Ether and Wei. This is the default value returned by this function, unless it's overridden. NOTE: This information is only used for _display_ purposes: it in no way affects any of the arithmetic of the contract, including {IERC20-balanceOf} and {IERC20-transfer}."
      },
      "decreaseAllowance(address,uint256)": {
        "details": "Atomically decreases the allowance granted to `spender` by the caller. This is an alternative to {approve} that can be used as a mitigation for problems described in {IERC20-approve}. Emits an {Approval} event indicating the updated allowance. Requirements: - `spender` cannot be the zero address. - `spender` must have allowance for the caller of at least `subtractedValue`."
      },
      "increaseAllowance(address,uint256)": {
        "details": "Atomically increases the allowance granted to `spender` by the caller. This is an alternative to {approve} that can be used as a mitigation for problems described in {IERC20-approve}. Emits an {Approval} event indicating the updated allowance. Requirements: - `spender` cannot be the zero address."
      },
      "name()": {
        "details": "Returns the name of the token."
      },
      "owner()": {
        "details": "Returns the address of the current owner."
      },
      "renounceOwnership()": {
        "details": "Leaves the contract without owner. It will not be possible to call `onlyOwner` functions. Can only be called by the current owner. NOTE: Renouncing ownership will leave the contract without an owner, thereby disabling any functionality that is only available to the owner."
      },
      "symbol()": {
        "details": "Returns the symbol of the token, usually a shorter version of the name."
      },
      "totalSupply()": {
        "details": "See {IERC20-totalSupply}."
      },
      "transfer(address,uint256)": {
        "details": "See {IERC20-transfer}. Requirements: - `to` cannot be the zero address. - the caller must have a balance of at least `amount`."
      },
      "transferFrom(address,address,uint256)": {
        "details": "See {IERC20-transferFrom}. Emits an {Approval} event indicating the updated allowance. This is not required by the EIP. See the note at the beginning of {ERC20}. NOTE: Does not update the allowance if the current allowance is the maximum `uint256`. Requirements: - `from` and `to` cannot be the zero address. - `from` must have a balance of at least `amount`. - the caller must have allowance for ``from``'s tokens of at least `amount`."
      },
      "transferOwnership(address)": {
        "details": "Transfers ownership of the contract to a new account (`newOwner`). Can only be called by the current owner."
      }
    },
    "version": 1
  },
  "userdoc": {
    "kind": "user",
    "methods": {},
    "version": 1
  },
  "storageLayout": {
    "storage": [
      {
        "astId": 128,
        "contract": "contracts/CoffeCoin.sol:CoffeCoin",
        "label": "_balances",
        "offset": 0,
        "slot": "0",
        "type": "t_mapping(t_address,t_uint256)"
      },
      {
        "astId": 134,
        "contract": "contracts/CoffeCoin.sol:CoffeCoin",
        "label": "_allowances",
        "offset": 0,
        "slot": "1",
        "type": "t_mapping(t_address,t_mapping(t_address,t_uint256))"
      },
      {
        "astId": 136,
        "contract": "contracts/CoffeCoin.sol:CoffeCoin",
        "label": "_totalSupply",
        "offset": 0,
        "slot": "2",
        "type": "t_uint256"
      },
      {
        "astId": 138,
        "contract": "contracts/CoffeCoin.sol:CoffeCoin",
        "label": "_name",
        "offset": 0,
        "slot": "3",
        "type": "t_string_storage"
      },
      {
        "astId": 140,
        "contract": "contracts/CoffeCoin.sol:CoffeCoin",
        "label": "_symbol",
        "offset": 0,
        "slot": "4",
        "type": "t_string_storage"
      },
      {
        "astId": 7,
        "contract": "contracts/CoffeCoin.sol:CoffeCoin",
        "label": "_owner",
        "offset": 0,
        "slot": "5",
        "type": "t_address"
      },
      {
        "astId": 1507,
        "contract": "contracts/CoffeCoin.sol:CoffeCoin",
        "label": "allowList",
        "offset": 0,
        "slot": "6",
        "type": "t_struct(BitMap)1360_storage"
      },
      {
        "astId": 1519,
        "contract": "contracts/CoffeCoin.sol:CoffeCoin",
        "label": "s_merkleRoot",
        "offset": 0,
        "slot": "7",
        "type": "t_bytes32"
      }
    ],
    "types": {
      "t_address": {
        "encoding": "inplace",
        "label": "address",
        "numberOfBytes": "20"
      },
      "t_bytes32": {
        "encoding": "inplace",
        "label": "bytes32",
        "numberOfBytes": "32"
      },
      "t_mapping(t_address,t_mapping(t_address,t_uint256))": {
        "encoding": "mapping",
        "key": "t_address",
        "label": "mapping(address => mapping(address => uint256))",
        "numberOfBytes": "32",
        "value": "t_mapping(t_address,t_uint256)"
      },
      "t_mapping(t_address,t_uint256)": {
        "encoding": "mapping",
        "key": "t_address",
        "label": "mapping(address => uint256)",
        "numberOfBytes": "32",
        "value": "t_uint256"
      },
      "t_mapping(t_uint256,t_uint256)": {
        "encoding": "mapping",
        "key": "t_uint256",
        "label": "mapping(uint256 => uint256)",
        "numberOfBytes": "32",
        "value": "t_uint256"
      },
      "t_string_storage": {
        "encoding": "bytes",
        "label": "string",
        "numberOfBytes": "32"
      },
      "t_struct(BitMap)1360_storage": {
        "encoding": "inplace",
        "label": "struct BitMaps.BitMap",
        "members": [
          {
            "astId": 1359,
            "contract": "contracts/CoffeCoin.sol:CoffeCoin",
            "label": "_data",
            "offset": 0,
            "slot": "0",
            "type": "t_mapping(t_uint256,t_uint256)"
          }
        ],
        "numberOfBytes": "32"
      },
      "t_uint256": {
        "encoding": "inplace",
        "label": "uint256",
        "numberOfBytes": "32"
      }
    }
  }
}